:100A6500456E74657220636F64653A0076616C69E2
:100A75006420636F64650031204F70656E202032FD
:100A850020436C6F73650033204368616E67652092
:100A9500636F646500446F6F72206973206F7065C2
:100AA5006E696E6700446F6F72206973206F7065A1
:100AB5006E656400446F6F7220697320436C6F73B9
:100AC500696E6700446F6F7220697320436C6F73A2
:100AD500656400456E746572206F6C6420636F6495
:100AE500653A00456E746572206E657720636F64A4
:100AF500653A00436F6465206368616E67656400ED
:100B0500496E76616C6964206F6C6420636F6465FF
:100B15000057726F6E672073656C656374696F6EDD
:100B25000054727920416761696E00496E76616C87
:100B3500696420636F646500416363657373204472
:060B4500656E69656400A5
:100DE0000C2A3132333435363738392A3023053737
:0C0DF00031323334000136300241000083
:070DFD00F5437544C0AF444B
:100E0400C2B08FA0D2B17F0A7E00120D82C2B1227D
:0E0DC200120B4B8F45743C2542F8A6457F2A44
:100DD000D2B08FA0D2B17F0A7E00120D82C2B122A2
:060D53008B468A47894827
:100D5900E4F549F54AAB46AA47A948854A82854937
:100D690083120C68FF600D120DD0054AE54A70E543
:040D7900054980E1C7
:010D7D002253
:040CEA00AB07AA06A4
:100CEE00E4F508F509D3EB9400EA940040307C005B
:100CFE007D0AAF03AE02120C95E50925E0240AF831
:100D0E00A60408A6057C007D0AAF03AE02120C9560
:100D1E00AA06AB070509E50970CB050880C7D3E520
:100D2E00099400E508648094804019E5091509705E
:100D3E00021508E50925E0240AF808E62430FF121A
:040D4E000DD080DA6A
:010D5200227E
:100E14007F38120E047F06120E047F02120E047F26
:040E24000C020E04AA
:040D7E007FE87E0389
:100D8200E4FDFCC3ED9FEC9E5015E4FBFA0BBB00A7
:0F0D9200010ABA03F8BBE8F50DBD00010C80E4BF
:010DA100222F
:100DA200C296C295C294C293D292D291D2903090FE
:100DB200063091032092057E007F0122E4FEFF228D
:100B4B00D292D291D290C293D296D295D294E4FF04
:100B5B00FE209004FCFD80642091028052209202C2
:100B6B008056C294D296D295D2937E007F0120906C
:100B7B000280342091028037209202803BC295D2B2
:100B8B0096D294D2937E007F0220900280192091FE
:100B9B0002801C2092028020C296D295D294D293CE
:100BAB007E007F03209005E4FCFD80102091067CE5
:100BBB00007D0180072092887C007D023090FD3003
:100BCB0091FA3092F7EF75F003A4242A2DF8E6FF83
:010BDB0022F7
:050E2800C2B2C2B322BA
:030E4100D2B22208
:030E4400D2B32204
:030E4700C2B22212
:030E4A00C2B3220E
:050E2D00C2B4C2B522B1
:050E3200D2B4C2B5229C
:050E3700C2B4D2B52297
:030E4D00C2972227
:030E5000D2972214
:030E5300C2972221
:10080000120E4D120E28120E147F01120E047F805C
:10081000120E047BFF7A0A7965120D53120DA2EFB6
:100820004E70F9120DFDC3E5429404E541648094D5
:1008300080500D120DC20542E54270EA054180E686
:10084000743C2542F8E4F6F541F542E53C65376035
:1008500003020A2FE53D65386003020A2FE53E6575
:10086000396003020A2FE53F653A6003020A2F7FD1
:1008700001120E047F80120E04120E417BFF7A0AD1
:100880007971120D537FFA7E00120D827F01120ED4
:10089000047F80120E047BFF7A0A797C120D537F4D
:1008A000C0120E047BFF7A0A798C120D53120E4788
:1008B0007FD4120E04120B4B8F36E5366431703440
:1008C0007F01120E047F80120E047BFF7A0A799A50
:1008D000120D53120E32120D7E120E2D7F01120ECA
:1008E000047F80120E047BFF7A0A79AA120D53123C
:1008F0000D7E8006E5366432702F7F01120E047F74
:1009000080120E047BFF7A0A79B9120D53120E374A
:10091000120D7E120E2D7F01120E047F80120E0426
:100920007BFF7A0A79C90209F7E53664336003026E
:100930000A007F01120E047F80120E047BFF7A0AE8
:1009400079D8120D53120DA2EF4E70F9120DFDC39E
:10095000E5429404E54164809480500D120DC20577
:1009600042E54270EA054180E6743C2542F8E4F62F
:10097000F541F542E53C6537706DE53D65387067DA
:10098000E53E65397061E53F653A705B7F01120EA7
:10099000047F80120E047BFF7A0A79E8120D53124D
:1009A0000DA2EF4E70F9120DFDC3E5429404E5412E
:1009B000648094805014120B4B8F457437120DC90C
:1009C0000542E54270E3054180DF74372542F8E4D3
:1009D000F6F541F5427F01120E047F80120E047B72
:1009E000FF7A0A79F880107F01120E047F80120EC0
:1009F000047BFF7A0B7905120D537FE87E03802A72
:100A00007F01120E047F80120E047BFF7A0B791691
:100A1000120D537F01120E047F80120E047BFF7AA9
:100A20000B7926120D537FF47E01120D8280307FE8
:100A300001120E047F80120E04120E44120E507B1F
:100A4000FF7A0B7930120D537FC0120E047BFF7AB0
:100A50000B793D120D53120D7E120E53120E4A7574
:050A6000363002080021
:050E3C0012080080FB1C
:03000000020BDC14
:0C0BDC00787FE4F6D8FD75814A020C23F6
:100C6800BB010CE58229F582E5833AF583E0225041
:100C780006E92582F8E622BBFE06E92582F8E2228B
:0D0C8800E58229F582E5833AF583E49322A5
:100C9500BC000BBE0029EF8DF084FFADF022E4CC43
:100CA500F875F008EF2FFFEE33FEEC33FCEE9DEC0C
:100CB500984005FCEE9DFE0FD5F0E9E4CEFD22ED52
:100CC500F8F5F0EE8420D21CFEADF075F008EF2F9C
:100CD500FFED33FD4007985006D5F0F222C398FD8D
:050CE5000FD5F0EA222A
:100BE800020E3CE493A3F8E493A34003F68001F2D9
:100BF80008DFF48029E493A3F85407240CC8C3330E
:100C0800C4540F4420C8834004F456800146F6DFDC
:100C1800E4800B0102040810204080900DE0E47E7F
:100C2800019360BCA3FF543F30E509541FFEE493D1
:100C3800A360010ECF54C025E060A840B8E493A398
:100C4800FAE493A3F8E493A3C8C582C8CAC583CAC3
:100C5800F0A3C8C582C8CAC583CADFE9DEE780BE7B
:010DFC0000F6
:00000001FF
